:020000040800F2
:1000000070130020811500081D0300081F0300085D
:1000100023030008270300082B030008000000004A
:100020000000000000000000000000002F03000896
:100030003103000800000000330300083503000806
:100040009B1500089B1500089B1500089B150008D0
:100050009B1500089B1500089B1500089B150008C0
:100060009B1500089B1500089B1500089B150008B0
:100070009B1500089B1500089B1500089B150008A0
:100080009B1500089B1500089B1500089B15000890
:100090009B1500089B1500089B1500089B15000880
:1000A0009B1500089B1500089B1500089B15000870
:1000B0009B1500089B1500089B1500089B15000860
:1000C0009B1500089B1500089B1500089B15000850
:1000D0009B150008F71400089B1500089B150008E5
:1000E0009B1500089B1500089B15000800F002F8FE
:1000F00000F06BF80AA090E8000C82448344AAF157
:100100000107DA4501D100F060F8AFF2090EBAE854
:100110000F0013F0010F18BFFB1A43F0010318473B
:10012000945E0000B45E000010F8013B0A4413F036
:10013000030408BF10F8014B1D1108BF10F8015B44
:10014000641E05D010F8016B641E01F8016BF9D133
:10015000002D15D010F8014B03F00C030C2BA1EB74
:1001600004040ABF10F8013BA4EB8314A4EB03249E
:1001700005F1010314F8016B5B1E01F8016BF9D561
:10018000914238BF10F8013BD1D3704700230024BF
:1001900000250026103A28BF78C1FBD8520728BF97
:1001A00030C148BF0B607047662903F0AF8700205D
:1001B00070471FB502F0B0FC04000020002103F0DE
:1001C00005FAE0601FBD10B510BD02F0BDFD11467F
:1001D000FFF7EFFF00F008F802F0DBFD03B4FFF7D4
:1001E000F2FF03BC01F02CF91CB500BF482001F060
:1001F000CBF801F01EF8002000F0DCFB002000F03E
:10020000E7FB01F017F94FF4165001F028F900F060
:1002100088F964E000F017FB00F048FB3048006804
:1002200003F01CFE044622460B462EA002F0BEF947
:100230002F48006803F012FE044622460B462DA00C
:1002400002F0B4F92E48006808B9012000E000204F
:100250002B4908604FF47A7001F0B0F800F00DFC03
:100260000120102327A20146009000F0A0FD0120EC
:1002700010210523CDE9001019480121026828202A
:1002800000F00BFE0120102320A201460090642004
:1002900000F08DFD012010231DA22821009000F008
:1002A00086FD012010210523CDE9001010482821EA
:1002B0000268084600F0F1FD0120102316A2282153
:1002C0000090642000F073FD00F0B4FB4FF47A70EE
:1002D00001F074F80020024908600549086099E7B8
:1002E0000008002074656D703D252E31660D0A00F2
:1002F0000408002068756D643D252E31660D0A00E6
:10030000A001214274656D703A00000043000000B6
:1003100068756D693A00000025000000704700BF55
:10032000FEE700BFFEE700BFFEE700BFFEE7704745
:1003300070477047704700000CB500200190009096
:100340006C48006840F480306A49086000BF694822
:10035000006800F4003000900198401C0190009863
:1003600018B90198B0F5A06FF1D16248006800F4A7
:10037000003010B10120009001E0002000900098B2
:10038000012843D15C48006840F010005A490860D9
:100390000846006820F0030008600846006840F046
:1003A0000200086053484068524948600846406867
:1003B00048600846406840F48060486008464068ED
:1003C00020F47C1048600846406840F4E81048601B
:1003D0000846006840F08070086000BF454800682B
:1003E00000F000700028F9D04248406820F0030077
:1003F000404948600846406840F00200486000BF3D
:100400003C48406800F00C000828F9D10CBD10B53C
:10041000FFF792FF10BD10B53648006840F00100AC
:10042000344908600846406834490840314948600A
:1004300008460068324908402E49086008460068AE
:1004400020F4802008600846406820F4FE004860E0
:100450004FF41F008860FFF7DAFF4FF00060294972
:10046000086010BD10B5002100200022214B5B6800
:1004700003F00C0121B1042906D0082928D107E096
:10048000214B224C236027E01F4B204C236023E0AC
:10049000184B5B6803F47010164B5B6803F48032F2
:1004A000022303EB904022B9194B4343174C2360BE
:1004B0000DE0104B5B6803F4003323B1144B43434E
:1004C000124C236003E0104B4343104C236003E0C5
:1004D0000D4B0E4C236000BF00BF064B5B68C3F39F
:1004E00003130C4CE15C094B1B68CB40074C2360A9
:1004F00010BD000000100240002002400000FFF884
:10050000FFFFF6FE08ED00E000127A001008002060
:1005100000093D001408002010B5022000F06AFF19
:1005200010BD00B585B00121082001F0D5FD0121E5
:10053000880501F0DEFD4FF44060ADF8100010209A
:100540008DF8130003208DF8120004A9994801F0DA
:1005500005F94FF44061974801F0ADF90020ADF87E
:1005600004004FF48060ADF80A000001ADF80C0003
:100570004CF25030009069468F4801F056FA012144
:100580008E4801F0D0FA01218B4801F008FB05B03C
:1005900000BD10B58748001D006820F470408549F3
:1005A000091D08600846006840F4405008600120BA
:1005B000834908608349C1F8A801FFF7ADFF002017
:1005C0007F490860FFF7A8FF00207E49C1F8A80115
:1005D00010BD10B57748001D006820F470407549C3
:1005E000091D08600846006840F44050086000207B
:1005F0007349091F08607349C1F8AC01FFF78CFF0C
:1006000001206F49091F08606E49C1F8AC01FFF76E
:1006100083FF10BD10B500246648001D006820F45B
:1006200070406449091D08600846006840F40040B5
:100630000860012062490860FFF76EFF01206149F0
:10064000C1F8A801FFF768FF07E0601CC4B2FA2CEC
:1006500003DDFFF7BEFF012010BD59488038006858
:100660000028F2D15649091F086000BFF4E710B511
:1006700000205349091F08604E48001D006820F4FF
:1006800070404C49091D08600846006840F440501D
:10069000086000204B49C1F8AC01FFF73DFF012085
:1006A0004749091F0860FFF737FF00204549C1F897
:1006B000A80110BD10B500204149091F08603D4840
:1006C000001D006820F470403A49091D0860084682
:1006D000006840F44050086001203A49C1F8AC017C
:1006E000FFF71AFF01203649091F0860FFF714FFC2
:1006F00000203449C1F8A80110BD70B504462D484A
:10070000001D006820F470402A49091D0860084651
:10071000006840F44050086000202949091F086023
:10072000002512E0E009264908606006040E012059
:100730002449C1F8A801FFF7EFFE00202049091F56
:100740000860FFF7E9FE681CC5B2082DEADB70BD42
:1007500070B5054600241748001D006820F470405D
:100760001449091D08600846006840F4004008600C
:10077000002615E000201249091F0860FFF7CCFE93
:1007800001201049C1F8A8016006040E0C48803809
:10079000006808B1601CC4B2FFF7BEFE701CC6B290
:1007A000082EE7DB15B9FFF785FF01E0FFF75FFFD4
:1007B000204670BD000C014000580040005400402D
:1007C000AC8121420080214230B502460B46002018
:1007D00010E012F8014B6040002109E000F0010434
:1007E0001CB18C2484EA600000E040104C1CE1B293
:1007F0000829F3DB1C00A3F10105ABB2E9D130BD40
:1008000070B505460C46FFF7C4FE8820FFF775FF5C
:1008100000BFFFF7FFFE0028FBD12846FFF76DFF62
:1008200000BFFFF7F7FE0028FBD12046FFF765FF6A
:1008300000BFFFF7EFFE0028FBD1FFF7CAFE05203F
:1008400000F0BCFD70BD10B526212120FFF7D8FFB8
:10085000FFF79FFE8920FFF750FF00BFFFF7DAFE8A
:100860000028FBD10120FFF773FF304908700120F9
:10087000FFF76EFF2D4948700120FFF769FF2B49F4
:1008800088700120FFF764FF2849C8700120FFF736
:100890005FFF264908710020FFF75AFF234948717E
:1008A000FFF797FE052000F089FD10BD2DE9F05FF0
:1008B0001E4949781D4A127801EB022003F0CEF858
:1008C000064600221A4B03F0E1F880460022194B3D
:1008D00002F06CFF04460022174B03F0D5F9824664
:1008E00002F08AFE15490860104909790F4AD2784A
:1008F00001EB022003F0B2F880460022104B03F017
:10090000C5F8064600220B4B02F050FF044602F0E9
:1009100073FE0C4908600020044908704870887014
:10092000C87008714871BDE8F09F000024080020DD
:1009300000E06540E0FFEF400080464000080020F6
:10094000000059400408002070B504460E4626B148
:100950000821F94800F0AFFF03E00821F64800F055
:10096000ACFF1021F44800F0A8FF002517E001219A
:10097000F14800F0A2FF04F0800020B10221EE480F
:1009800000F099FF03E00221EB4800F096FF0121FF
:10099000E94800F090FF6006040E681CC5B2082DFF
:1009A000E5DB1021E44800F086FF0821E24800F072
:1009B00082FF70BD10B504461CB90021A620FFF7C8
:1009C000C3FF012C03D10021A720FFF7BDFF10BDFD
:1009D00010B504463CB90021C820FFF7B5FF00213F
:1009E000A120FFF7B1FF012C07D10021C020FFF7A4
:1009F000ABFF0021A020FFF7A7FF10BD10B500211D
:100A00008D20FFF7A1FF00211420FFF79DFF00219B
:100A1000AF20FFF799FF10BD10B500218D20FFF723
:100A200093FF00211020FFF78FFF0021AE20FFF77A
:100A30008BFF10BD70B500241CE004F1B001C8B2FA
:100A40000021FFF781FF00210846FFF77DFF00210D
:100A50001020FFF779FF002508E0B84901EBC50138
:100A6000085D0121FFF770FF681CC5B2802DF4DB23
:100A7000601CC4B2082CE0DB70BD70B500240CE033
:100A8000002506E00020AD4901EBC5010855681CB2
:100A9000C5B2802DF6DB601CC4B2082CF0DBFFF77A
:100AA000C9FF70BDF0B514460B46CF1701EB577761
:100AB000C7F3C702CF1701EB5777FF10A1EBC707AA
:100AC000FEB20123B340DDB24CB19C4B03EBC0033B
:100AD0009B5C2B43994F07EBC007BB541AE0974B25
:100AE00003EBC0039B5CDB43944F07EBC007BB5495
:100AF000924B03EBC0039B5C2B43904F07EBC0076B
:100B0000BB548E4B03EBC0039B5CDB438B4F07EB6B
:100B1000C007BB54F0BD2DE9FF4F84B081468A4623
:100B20000020029083460698A0EB09040798A0EBEA
:100B30000A06CDF80490CDF800A0002C01DD0127B5
:100B400005E00CB9002702E04FF0FF376442002EA9
:100B500002DD4FF0010806E016B94FF0000802E090
:100B60004FF0FF386642B44201DD254600E03546CD
:100B7000002003901EE0009AD1B2019AD0B2119ADF
:100B8000FFF790FF029820440290B3440298A842D5
:100B900005DD0298401B0290019838440190AB4556
:100BA00004DDABEB050B0098404400900398401C1B
:100BB00080B20390691C03988842DCDB08B0BDE872
:100BC000F08F2DE9F04306460F4690460025444637
:100BD00043E03A1BD1B27219D0B20122FFF762FF93
:100BE0003A1BD1B2721BD0B20122FFF75BFF3A1958
:100BF000D1B2721BD0B20122FFF754FF3A19D1B221
:100C00007219D0B20122FFF74DFF7A19D1B2321911
:100C1000D0B20122FFF746FF7A1BD1B23219D0B20F
:100C20000122FFF73FFF7A1BD1B2321BD0B2012263
:100C3000FFF738FF7A19D1B2321BD0B20122FFF789
:100C400031FF6D1C05FB05F004FB040008FB1809CF
:100C5000B9F1000F01DD641E6D1E6000604308FBEA
:100C600008F18842B5DABDE8F0832DE9FE4F07466A
:100C7000884692461C460197CDF80080082C02D188
:100C80004FF006091FE02046E31704EB5373DB1017
:100C900021464FEAE47C04EB5C7C4FEAEC0CA4EBCD
:100CA000CC0CBCF1000F02D04FF0010C01E04FF072
:100CB000000C6344224604EBD27C4FEA6C0C03FB2D
:100CC0000CF303F0FF09AAF12000C6B200256AE088
:100CD000082C07D106EB4600194901EB400010F83B
:100CE00005B01DE00C2C07D106EB4600154901EBC1
:100CF000800010F805B013E0102C05D1124800EB6D
:100D0000061010F805B00BE0182C07D106EBC60052
:100D10000E4901EB800010F805B001E0BDE8FE8F40
:100D20000020029028E00BF0010088B141463846CF
:100D30000C9AFFF7B7FE15E0000801404C080020B0
:100D40001041000838430008AC4700089C4D0008DB
:100D50000C9808B9012000E00020024641463846C0
:100D6000FFF7A0FE4FEA6B0B08F1010000F0FF084F
:100D70000298401CC0B2029002980828D3DB781C6D
:100D8000C7B2082C0BD004EBD4714A100199791A20
:100D90008A4204D1019F00980830C0B20090DDF86B
:100DA0000080681CC5B24D4592DB00BFB6E72DE957
:100DB000F84106460F4614461D46DDF81C8013E038
:100DC000CDF8008022782B4639463046FFF74DFF9C
:100DD000082D02D1B01DC6B205E0284605EBD07142
:100DE00006EB6101CEB2641C2078202802DB20785B
:100DF0007E28E5DDBDE8F88110B50246012000E05F
:100E000050430B00A1F10104E1B2F9D110BD2DE96D
:100E1000FF4F82B0064691461F46DDE90F4A4FF06C
:100E2000000B082C01D14FF0020B002530E0781B9D
:100E3000401EC1B20A20FFF7DFFFB9FBF0F00A2124
:100E4000B0FBF1F201FB1208B8F1000F0ED104EB78
:100E5000D4710BEB610101FB0561C8B2234630225E
:100E6000CDE900A40399FFF700FF0FE004EBD47174
:100E70000BEB610101FB0561C8B208F13001CAB298
:100E80002346CDE900A40399FFF7EFFE681CC5B225
:100E9000BD42CCDB06B0BDE8F08F2DE9FF4F85B039
:100EA000074691461E46DDE9125800200490039043
:100EB0000021484603F02AF803D289F000490120B6
:100EC0000490FE49484603F055F8029002F0FEFFF8
:100ED0001FFA80FB00246EE0301B401EC1B20A20C6
:100EE000FFF78AFFBBFBF0F00A21B0FBF1F201FB38
:100EF000120A0398B0BB701EA04236DDBAF1000F93
:100F000031D1301B801EC1B20A20FFF775FFBBFB39
:100F1000F0F00A21B0FBF1F201FB120098B1049845
:100F2000012810D105EBD571491001FB0471C8B23D
:100F30002B462D22CDF8008002950699FFF795FEED
:100F4000002004900DE005EBD571491001FB047100
:100F5000C8B22B462022CDF8008002950699FFF7F3
:100F600084FE26E001E001200390701EA0420FD114
:100F700005EBD571491001FB0471C8B22B462E2236
:100F8000CDF8008002950699FFF76FFE601CC4B291
:100F900005EBD571491001FB0471C8B20AF13001AB
:100FA000CAB22B46CDF8008002950699FFF75DFE88
:100FB00000BF601CC4B2B4428EDB09B0BDE8F08F44
:100FC0002DE9FC4F0746884616461C46BB46CDF821
:100FD00004802046E21704EB5272D2102146E31738
:100FE00004EB5373DB10A4EBC3030BB1012300E04C
:100FF00000231A44624392B20092002555E0102C5F
:1010000005D1AF4800EB461010F805A01BE0182CE6
:1010100007D106EBC600AB4901EBC00010F805A0F4
:1010200011E0202C05D1A84800EBC61010F805A04F
:1010300009E0402C05D1A54800EB462010F805A09A
:1010400001E0BDE8FC8F4FF000091CE00AF0010050
:1010500028B1414638460B9AFFF724FD09E00B986A
:1010600008B9012000E00020024641463846FFF75B
:1010700019FD4FEA6A0A08F1010000F0FF0809F1C2
:10108000010000F0FF09B9F1080FDFDB781CC7B2DF
:10109000A7EB0B00A04204D15F4601980830C0B214
:1010A0000190DDF80480681C85B200988542A6DBBB
:1010B00000BFC6E708B5804689469246002600274D
:1010C0004BE04FB91023324618218020CDF800A004
:1010D000FFF776FF701CC6B2464522D14FF0000BD9
:1010E0001AE0012410E000250AE0794800EBC40072
:1010F000415D601E764A02EBC0004155681CC5B2D6
:10110000082DF2DB601CC4B2902CECDBFFF792FCE4
:101110000BF1010000F0FF0B4FEA09105845E0DC2D
:101120000026781CC7B2102F00D10027012410E040
:1011300000250AE0664800EBC400415D601E644A79
:1011400002EBC0004155681CC5B2082DF2DB601CE3
:10115000C4B2902CECDBFFF76DFCB2E72DE9FF4F3A
:1011600005460E4617461C46DDF838904FF0000A3B
:101170000095B3462046E21704EB5272D210214686
:10118000E31704EB5373DB10A4EBC3030BB1012390
:1011900000E000231A44D4B24FF0000845E00020DC
:1011A00003903BE00D9810F80A0002900AF101004C
:1011B0001FFA80FA002001901DE0029800F0010063
:1011C00028B14A4631462846FFF76CFC0AE0B9F1DF
:1011D000000F01D1012000E00020024631462846E0
:1011E000FFF760FC029840100290701CC6B2019894
:1011F000401CC0B2019001980828DEDB681CC5B213
:101200000098281AB84204D1009D0BF1080000F0A4
:10121000FF0B5E460398401CC0B203900398B8428F
:10122000C0DB08F1010000F0FF08A045B7DBBDE816
:10123000FF8F08B50121052000F04EFF0121254850
:1012400000F05DFB48F21F00ADF8000010208DF8A3
:10125000030003208DF8020069461F4800F07EFA63
:1012600048F21F011C4800F026FB04211A4800F038
:1012700024FBC82000F0A2F80421174800F01BFB53
:101280000021AE20FFF760FB00210846FFF75CFB62
:1012900000211020FFF758FB00214020FFF754FBEE
:1012A00000218120FFF750FB0021CF20FFF74CFBEE
:1012B0000021A120FFF748FB00210FE000002041A2
:1012C000F85A0008585C0008A05C0008205D00087F
:1012D0004C0800200002300000080140C820FFF741
:1012E00033FB0021A620FFF72FFB0021A820FFF7EA
:1012F0002BFB00213F20FFF727FB0021D320FFF726
:1013000023FB00210846FFF71FFB0021D520FFF734
:101310001BFB00218020FFF717FB0021D920FFF7DE
:1013200013FB0021F120FFF70FFB0021DA20FFF76C
:101330000BFB00211220FFF707FB0021DB20FFF74A
:1013400003FB00214020FFF7FFFA00212020FFF7D8
:10135000FBFA00210220FFF7F7FA00218D20FFF7AA
:10136000F3FA00211420FFF7EFFA0021A420FFF781
:10137000EBFA0021A620FFF7E7FAFFF77EFB00213A
:10138000AF20FFF7E1FA08BD10B504466FF0040086
:1013900000F065F9E11704EB5171C1F3C701234A6D
:1013A00011701046007800EB4001C1EBC0104FF601
:1013B000FF7101EAC0001E49088010BD01461C4AA9
:1013C00012884A434FF0E0235A6100229A610122B9
:1013D0001A6100BF4FF0E022106900F001021AB15B
:1013E00000F48032002AF5D000224FF0E0231A6189
:1013F0009A61704701460D4A12784A434FF0E02344
:101400005A6100229A6101221A6100BF4FF0E02266
:10141000106900F001021AB100F48032002AF5D000
:1014200000224FF0E0231A619A6170472C080020D7
:101430002E08002010B54FF4A06000F0C1F810BDD8
:10144000014600BF704700BF494A128802F04002BF
:10145000002AF9D0C2B2464B1B1D1A80704710B546
:1014600086B00446012144F2050000F035FE4FF439
:101470000070ADF8140003208DF8160018208DF8C8
:10148000170005A93B4800F069F94FF48060ADF8FA
:10149000140004208DF8170005A9364800F05EF905
:1014A00025208DF8000003208DF801008DF8020042
:1014B00001208DF80300684600F087F801940020B1
:1014C000ADF80800ADF80A00ADF80C00ADF810005A
:1014D0000C20ADF80E0001A9254800F0A4FE012261
:1014E00040F22551224800F036FF0121204800F04B
:1014F00026FF06B010BD10B540F225511C4801F082
:101500000FF810B31A4800F08BFFC4B21A480078E5
:1015100000F08000C8B91848007800F0400060B1C1
:101520000A2C03D000201449087020E012480078EB
:1015300040F080001049087019E00D2C06D10E48CB
:10154000007840F040000C49087010E00A4800782C
:1015500000F03F0009490C5407480078401C064938
:101560000870084600783F2801DD0020087010BD93
:10157000003801400008014034080020CC0C002055
:101580000948804709480047FEE7FEE7FEE7FEE717
:10159000FEE7FEE7FEE7FEE7FEE7FEE70448054953
:1015A000054A064B7047000017040008ED000008CC
:1015B000700D002070130020700F0020700F0020AD
:1015C00031490143314A1160704770B50021002351
:1015D0000F22C47804B32D4C246804F4E064C4F5ED
:1015E000E064210AC1F10403CA40447804FA03F11B
:1015F0008478144021430901254C0678A1550478CC
:1016000004F01F050124AC4005786D11AD0005F113
:10161000E025C5F8004109E0047804F01F05012425
:10162000AC401C4D0678761145F8264070BD1A4A2C
:101630000A400243154B1B1F1A60704739B1134A09
:10164000121D12680243114B1B1D1A6006E00F4A5F
:10165000121D126882430D4B1B1D1A60704704282F
:1016600008D14FF0E021096941F004014FF0E02278
:10167000116107E04FF0E021096921F004014FF00A
:10168000E0221161704700000000FA050CED00E057
:1016900000E400E080E100E080FFFF1F10B5044699
:1016A000CC48844208D10121042000F02FFD002104
:1016B000042000F02BFD46E0C748844208D10121F8
:1016C000082000F023FD0021082000F01FFD3AE073
:1016D000C248844208D10121102000F017FD0021EA
:1016E000102000F013FD2EE0BD48844208D10121F6
:1016F000202000F00BFD0021202000F007FD22E05B
:10170000B848844208D10121402000F0FFFC0021AC
:10171000402000F0FBFC16E0B348844208D10121D0
:10172000802000F0F3FC0021802000F0EFFC0AE0B4
:10173000AE48844207D10121801500F0E7FC00216A
:10174000A01500F0E3FC10BD10B50121084600F023
:10175000DDFC0021012000F0D9FC10BD2DE9F04195
:10176000024600250026002000230024002791F8CF
:1017700003C00CF00F0591F803C00CF0100CBCF185
:10178000000F03D091F802C04CEA050591F800C0A3
:10179000BCF1000F31D0146800202BE04FF0010C99
:1017A0000CFA00F3B1F800C00CEA03069E4220D107
:1017B00083004FF00F0C0CFA03F7BC4305FA03FC4F
:1017C0004CEA040491F803C0BCF1280F06D14FF095
:1017D000010C0CFA00FCC2F814C00AE091F803C036
:1017E000BCF1480F05D14FF0010C0CFA00FCC2F817
:1017F00010C0401C0828D1D31460B1F800C0BCF15F
:10180000FF0F34DD546800202EE000F1080C4FF08B
:10181000010808FA0CF3B1F800C00CEA03069E4276
:1018200021D183004FF00F0C0CFA03F7BC4305FAEB
:1018300003FC4CEA040491F803C0BCF1280F05D165
:1018400000F1080C08FA0CF8C2F8148091F803C0F3
:10185000BCF1480F07D100F1080C4FF0010808FA5D
:101860000CF8C2F81080401C0828CED35460BDE8A4
:10187000F0814FF6FF710180022181700421C17057
:1018800070470246002093680B400BB1012000E036
:10189000002070470146886880B2704702460020E9
:1018A000D3680B400BB1012000E0002070470146D7
:1018B000C86880B2704701617047416170470AB1E2
:1018C000016100E041617047C16070474FF48032B0
:1018D0000A4382618161826182698269704702463E
:1018E0000020434B18684FF68073184040EA0210FE
:1018F00008433F4B186070473E49C8617047F0B5D8
:101900000A46002300240021002500F00046B6F11D
:10191000004F02D1364EF16901E0354E7168C0F3D7
:10192000034583B200F44016B6F5401F08D121F0FC
:1019300070612F4E766826F070662D4F7E6012E043
:1019400000F48016B6F5801F06D1032606FA05F4CA
:10195000A14341F0706106E0460D360103FA06F638
:10196000B14341F0706122B1460D360103FA06F62B
:10197000314300F00046B6F1004F02D11C4EF16138
:1019800001E01B4E7160F0BD30B500228B071C0FCB
:101990000F2303FA04F2164B08338C1053F824304B
:1019A0009343134C08348D1044F8253023468C1093
:1019B00053F824308C07240F00FA04F423430C4C12
:1019C00008348D1044F8253030BD0A49DC310860F8
:1019D0007047000000080140000C01400010014069
:1019E0000014014000180140001C0140002001408B
:1019F000000001400000204210B50446F748844230
:101A000009D10121480500F08EFB00214FF40010A0
:101A100000F089FB08E00121880500F084FB00212B
:101A20004FF4800000F07FFB10BD2DE9F04385B03E
:101A300004460D460026B1460427DFF8A483A68895
:101A40004FF6C0700640684600F0D9FADDF808800D
:101A5000E448B8FBF0F01FFA80F946EA0906A680D0
:101A600020884FF6FE71084020800026DE49286855
:101A700088420CD828684000B8FBF0F087B2042FE9
:101A800000DA04273E4309F10100208427E0E888BA
:101A90004BF6FF71884206D1286800EB4000B8FB86
:101AA000F0F087B209E0286800EBC00101EB0010FC
:101AB000B8FBF0F087B247F48047C7F30B0008B9D2
:101AC00047F0010747F4004006434FF4967009FBC6
:101AD00000F04FF47A7190FBF1F0401C2084A68353
:101AE000208840F00100208026884FF6F53006401F
:101AF000A8886989084306432680A889298908435C
:101B0000208105B0BDE8F08341F2883101600021F9
:101B100081804BF6FF71C1800021018141814FF42A
:101B200080418181704721B1028842F00102028028
:101B300004E002884FF6FE731A400280704721B11C
:101B4000828842F40062828004E082884FF2FF7350
:101B50001A408280704721B1828842F4805282808C
:101B600004E082884EF6FF731A408280704721B1EC
:101B7000028842F48072028004E002884FF6FF631C
:101B80001A400280704721B1028842F4007202803C
:101B900004E002884FF6FF531A400280704721B1DB
:101BA000028842F48062028004E002884FF6FF332C
:101BB0001A40028070470A46002181894FF601735E
:101BC000194002F0FE0319438181704721B18289D7
:101BD00042F00102828104E082894FF6FE731A40CE
:101BE0008281704721B1028842F04002028004E005
:101BF00002884FF6BF731A40028070471AB183887B
:101C00000B43838002E083888B438380704701828B
:101C100070470146088AC0B2704712B141F0010115
:101C200002E04FF6FE7319400182704708B5024684
:101C300000200090009200980844009000980088CE
:101C400008BD21B1028842F40042028003E002880C
:101C5000C2F30E0202807047B1F5006F04D1028812
:101C600042F40062028004E002884FF2FF731A40DF
:101C700002807047B1F5005F04D1028842F400523F
:101C8000028004E002884DF6FF731A40028070471C
:101C900021B1028842F48052028004E002884EF6AC
:101CA000FF731A4002807047B1F5006F04D10288BB
:101CB00042F40062028004E002884FF2FF731A408F
:101CC0000280704721B1028842F02002028004E0C5
:101CD00002884FF6DF731A40028070470146088B76
:101CE0000012704721B1028842F01002028004E025
:101CF00002884FF6EF731A400280704721B90288BC
:101D000042F08002028004E002884FF67F731A409E
:101D100002807047B1F5804F05D0828B4BF6FF7380
:101D20001A40828303E0828B42F4804282837047B0
:101D300070B502460024002500230020958A138BED
:101D40001B0445EA030626F07F4404EA01068E429E
:101D500001D1012000E0002070BD10B50146002037
:101D6000002300228B8A0A8B120443EA020424F027
:101D70007F4010BD0CB50246002000230193009364
:101D800000920B0F019321F07F41019B1BB1009B3F
:101D90001433009303E0090C009B18330093009B5D
:101DA0001B680B400BB1012000E000200CBD00229D
:101DB00021F07F42D3438382704730B50246002032
:101DC0000023948801F0E06504EA154321F07F4187
:101DD000948A0C4054B14BB1012008E000540040FB
:101DE00000127A0040420F00A0860100002030BDA2
:101DF000002221F07F42D34383827047DF4800688E
:101E000040F00100DD49086008464068DC490840B0
:101E1000DA49486008460068DA490840D74908604E
:101E20000846006820F4802008600846406820F4D6
:101E3000FE0048604FF41F0088607047CF49096872
:101E400021F48031CD4A11601146096821F48021C6
:101E50001160B0F5803F03D0B0F5802F0ED106E0C1
:101E6000C649096841F48031C44A116007E0C3499A
:101E7000096841F4A021C14A116000E000BF00BF21
:101E8000704710B501460022002300204A11012AA4
:101E900002D1BA4C236806E0022A02D1B74C236A69
:101EA00001E0B64C636A01F01F02012494401C401B
:101EB0000CB1012000E0002010BD38B500200090DA
:101EC0000024002500BF3120FFF7DBFF0546009806
:101ED000401C00900098B0F5A06F01D0002DF2D00A
:101EE0003120FFF7CEFF08B1012400E00024204696
:101EF00038BD01460020A14A106820F0F80040EAF1
:101F0000C10010607047A049086070470246002079
:101F10009A4B586820F47C1042EA01031843974B0F
:101F20005860704798490866704701460020934AF8
:101F3000506820F003000843506070478F484068A5
:101F400000F00C007047014600208C4A506820F0D9
:101F5000F00008435060704701460020874A5068EF
:101F600020F4E06008435060704701460020834A37
:101F7000506820F4605040EAC1005060704729B1B9
:101F80007E4A527A02437D4B5A7204E07B4A527A6F
:101F900082437A4B5A7270477B49D8310860704748
:101FA00001460020754A506820F4404008435060C4
:101FB00070470021714A20321170704A82F8201057
:101FC000012802D004280AD104E001216B4A203202
:101FD000117005E00521694A2032117000E000BF50
:101FE00000BF70476949086070476449096A014346
:101FF000624A11627047654944390860704730B5DC
:1020000000210022002400235C4D6D6805F00C01C6
:1020100021B1042905D0082923D105E05C4D0560D4
:1020200022E05B4D05601FE0544D6D6805F47012B1
:10203000524D6D6805F48034022505EB92421CB9BF
:10204000544D554305600BE04C4D6D6805F400356B
:102050001DB1504D5543056002E04D4D554305609F
:1020600002E04B4D056000BF00BF444D6D6805F0B8
:10207000F0010909484D6B5C0568DD4045603F4D46
:102080006D6805F4E061090A434D6B5C4568DD400D
:1020900085603A4D6D6805F46051C90A3E4D6B5C30
:1020A0004568DD40C560354D6D6805F44041890BDC
:1020B0003A4D6B5CC568B5FBF3F5056130BD29B1E0
:1020C0002E4A526902432D4B5A6104E02B4A526951
:1020D00082432A4B5A61704729B1284A92690243C8
:1020E000264B9A6104E0254A92698243234B9A6108
:1020F000704729B1214AD2690243204BDA6104E0DA
:102100001E4AD26982431D4BDA61704729B11B4ACE
:10211000D2680243194BDA6004E0184AD26882435D
:10212000164BDA60704729B1144A12690243134B07
:102130001A6104E0114A12698243104B1A61704718
:1021400012494039086070470F49C86470470B490D
:10215000C87170470948406A40F08070074948627A
:10216000704701460020054A92680A400AB10120E2
:1021700000E000207047014988727047001002405B
:102180000000FFF8FFFFF6FE0000424280044242DA
:1021900000127A0000093D003508002045080020A3
:1021A00010B50446FB48844209D101218803FFF79A
:1021B000ADFF00214FF48040FFF7A8FF32E0F64862
:1021C000844209D101214804FFF7ADFF00214FF4FB
:1021D0000030FFF7A8FF25E0F048844209D1012133
:1021E0008804FFF7A0FF00214FF48020FFF79BFF3A
:1021F00018E0EB48844209D10121C804FFF793FF9E
:1022000000214FF40020FFF78EFF0BE0E5488442E9
:1022100008D101210805FFF786FF00214FF4801047
:10222000FFF781FF10BD2DE9F04786B005460E4649
:102230000024A24600BFA1460027B08900B100BF1C
:102240002F462C8A4CF6FF700440F08804432C8201
:10225000AC894EF6F3100440B08831890843718987
:1022600008430443AC81AC8A4FF6FF400440B08978
:102270000443AC8201A8FFF7C2FEC648874202D1E0
:10228000DDF810A001E0DDF80CA0A88900F4004002
:1022900040B10AEBCA0000EB0A1031684900B0FBFC
:1022A000F1F807E00AEBCA0000EB0A103168890078
:1022B000B0FBF1F86420B8FBF0F0040120096421C0
:1022C00001FB1089A88900F4004040B1322000EBE6
:1022D000C900B0FBF1F000F00700044308E0322031
:1022E00000EB09106421B0FBF1F000F00F00044393
:1022F0002C8106B0BDE8F0874FF416510160002133
:102300008180C18001810C21418100218181704740
:1023100010B502460020108A4FF2FF0318400B88C8
:102320004C8823438C882343CC8823431843108252
:1023300010BD0021018041808180C180704721B1A2
:10234000828942F40052828104E082894DF6FF7353
:102350001A4082817047F0B503460024002600250C
:10236000002040F66A17B94200D100BF1846C1F3F9
:10237000421401F01F06012707FA06F5012C01D1CE
:102380000C3004E0022C01D1103000E014301AB1FE
:1023900007682F43076002E00768AF430760F0BD9E
:1023A0001AB1838A0B43838202E0838A8B43838240
:1023B0007047028A4FF6F0731A400282028A0A437B
:1023C0000282704782894FF2FF731A4082818289AC
:1023D0000A438281704721B1828942F002028281E0
:1023E00004E082894FF6FD731A4082817047028AA9
:1023F0004FF6DF731A400282028A0A430282704754
:1024000021B1028A42F48042028204E0028A4BF641
:10241000FF731A4002827047C1F30802828070473E
:1024200001468888C0F308007047818941F00101A6
:1024300081817047028BD2B20283028B42EA012271
:1024400002837047028B02F47F420283028B0A43AD
:102450000283704721B1828A42F02002828204E026
:10246000828A4FF6DF731A408282704721B1828AD6
:1024700042F01002828204E0828A4FF6EF731A4023
:102480008282704721B1828A42F00802828204E08F
:10249000828A4FF6F7731A408282704721B182898F
:1024A00042F40042828103E08289C2F30E028281FB
:1024B000704721B1828A42F40062828204E0828AFB
:1024C0004FF2FF731A4082827047828A4FF6FB7385
:1024D0001A408282828A0A438282704721B1828AAC
:1024E00042F00202828204E0828A4FF6FD731A40B3
:1024F0008282704702460020B1F5007F00D100BF04
:1025000013880B400BB1012000E00020704701F45C
:102510000072B2F5007F00D100BFCA43028070474D
:1025200070B50246002400230025002040F66A16FC
:10253000B14200D100BFC1F3421501F01F030126D3
:1025400006FA03F3012D02D19689334006E0022DED
:1025500002D1168A334001E0968A33400C120126DC
:1025600006FA04F41688344013B10CB1012000E0DF
:10257000002070BD10B50022002340F66A14A1426D
:1025800000D100BF0A1201249440A3B2DC430480AE
:1025900010BD0000003801400044004000480040E9
:1025A000004C004000500040704700000FB4044948
:1025B00010B503AA029800F09DFA10BC5DF814FB58
:1025C000300800202DE9F0474FF0000A8946044604
:1025D000C0F820A02046E1688847002876D025284A
:1025E00006D0D4E901219047206A401C2062F1E71F
:1025F000E168204600258847C4F81CA0064600274D
:10260000C4F818A02A2E09D0304600F0D8FF38B3FD
:1026100004EB8708303EC8F8186019E059F8041B2D
:10262000204604EB87029161E1688847012F064646
:1026300018D1E069002820DA25F020051DE0D8F83F
:10264000180000EB800006EB40003038C8F8180096
:102650002046E1688847064600F0B1FF0028EED129
:10266000012F0AD02E2E08D12046E16888477F1C12
:102670000646022F45F02005C4DBA069002803DAD6
:10268000404245F00105A061E80701D025F01005A2
:10269000B6B1A6F14100192802D8203645F40065EC
:1026A0004A463146204625604D46FDF77DFD58B12E
:1026B000012806D0ED1D25F0070000F1080989E783
:1026C00004E005F1040985E730468AE7206ABDE8A1
:1026D000F087704770477047704770472DE9FF4F8C
:1026E0000C461E464FF0FF378BB0D2E90001DDF8F3
:1026F00060800A908A46C1F30A5505B93D4600211B
:1027000008464FF00000BAF1000F00F4400005DA6F
:1027100000EB80004FF4400101EA50004FEA90596D
:10272000B9F1010F00DDB9460A9850EA4A000ED00F
:1027300044F61050A5F2FF3545432F14B8F1000FB1
:102740001ED07542291E1EDDC9F100021CE0B8F141
:10275000010F4FF0000001D0302103E0F24305E00B
:102760002154401CB042FBDB3046002200212154A2
:102770000B99C1F80880C1E900200FB0BDE8F08FC7
:10278000BD1B6D1CDEE74A4600DA694206A800F070
:1027900065FA06AB93E8070003AB83E807005046F1
:1027A0000A9900F03DFB8DE80700A0F500501F38A6
:1027B00000900398002D09DD42F21F014A460844AB
:1027C00003A90390684600F09CFD08E0A0F50050C6
:1027D0004A461F3803A90390684600F0A6FD8DE81D
:1027E00007000004000C03D04FF0FF30410800E068
:1027F0001046B8F1000F03D00022009215461EE0EB
:10280000751E05D400F08CF9303262556D1EF9D575
:10281000B3460122084302D000227F1C04E0207846
:10282000302801D100227F1E002A099786D01DE0A2
:10283000112D07DA00F074F9303262556D1C50EA40
:102840000102F5D1084302D00098C8B10EE0002182
:10285000681E05E0235C625C63542254401E491CE0
:102860008142F7DBAB46A81B401E0990002004F80C
:102870000B000B98099AC0F80880C0E9002B7CE790
:1028800011264FF0000859E72DE9F04F884604461D
:10289000D21D22F0070191B0D1E90001CDE90A0172
:1028A00000F079FE02460B98C00F01D02D2007E002
:1028B0002068810701D52B2002E0202101EAC00019
:1028C000032A099001D0072A05DB0346414620462A
:1028D00000F084F90BE12078800601D5E06900E082
:1028E0000620B8F1650F814606D0B8F1660F18D002
:1028F000B8F1670F70D131E00020B9F1110F0090ED
:1029000001DB112301E009F101030AAA01A90CA8C6
:10291000FFF7E4FEDDE90C70002609F101058346AE
:1029200047E001204B4600904FF000470AAA01A95A
:102930000CA8FFF7D3FEDDE90DB00C995D4600262B
:1029400010B909F101000D18B9EB050003D4C0F16D
:10295000FF3609F10105A5EB09002BE0B9F1010FE4
:1029600001DA4FF001090020B9F1110F009048463B
:1029700001DD112300E003460AAA01A90CA8FFF714
:10298000ADFEDDE90C704D46002683462078000739
:102990000AD4AB4500DA5D4601A8012D04DD4119DA
:1029A00011F8011C302907D04F4502DA17F1040F46
:1029B00004DA012082460FE06D1EEEE7002F02DCF4
:1029C000ED1B3E4403E0781CA84200DD7D1CB81BD3
:1029D00000F1010A4FF000472078000703D4AA4510
:1029E00001DB4FF0FF3A0021B7F1004F0DF1430832
:1029F0008DF8431024D002202B23002F01DA7F42D0
:102A00002D230A21021EA0F1010000DC5FB197FB1B
:102A1000F1FC97FBF1F201FB1C7C17460CF1300C2A
:102A200008F801CDEEE7A8F101000370218809053F
:102A300001D5452100E06521A0F1010800F8011C45
:102A400009980FA9A1EB0807FF1D00B1012041194A
:102A500001EBEA70A1693844081A401EA061207891
:102A6000C00602D42046AFF30080099828B1D4E90B
:102A700001219047206A401C20622078C00622D5A0
:102A80002046AFF300801EE0002E04DBB34502DDDC
:102A900001A8805D00E03020D4E901219047206A40
:102AA000401C2062761CAAF101005FEA000A0AD1EC
:102AB00000F032F8C0680168405CD4E90121904719
:102AC000206A401C2062281EA5F10105DCDC07E01D
:102AD000D4E9012118F8010B9047206A401C2062BC
:102AE000381EA7F10107F3DC2046AFF30080032076
:102AF00011B043E6074B70B50D467B4400F05BF820
:102B00000446284600F018F910B14FF0FF3070BDB0
:102B1000204670BD49E9FFFF004870472C0D00209A
:102B200030B5B0F10A024FEA900E71F100034EEA9F
:102B3000817EB0EB0E0061EB91014FEA101E4EEA70
:102B4000017E10EB0E0041EB11114FEA102E4EEA00
:102B5000016E10EB0E0041EB11214FEA104E4EEAD0
:102B6000014E10EB0E0041EB1141401841F1000104
:102B70004FEAD00040EA41704FEAD10110EB8005E6
:102B80004FEA810444EA907444EB01046D1944EB6C
:102B90000404521BA3414FF0000348BF0A3200D582
:102BA00030BD401C41F1000130BD000001694A1CEC
:102BB00002610878704700B58FB0CDE9013100217E
:102BC000059105497944CDE9031011466846FFF7A0
:102BD000F9FC0FB000BD0000E5FFFFFF2DE9F0415B
:102BE0001F46044603260168072A01F4006004DB3F
:102BF00008B116A505E016A503E008B115A500E08B
:102C000015A521F010002060A069C01EA0610FB1C1
:102C1000401EA0612046AFF300804FB1D4E90121EE
:102C200038469047206A401C2062C01C206206E0A3
:102C3000206AFAE7D4E9012115F8010B9047761EC6
:102C4000F8D22046AFF30080BDE8F0814E414E003F
:102C50006E616E00494E4600696E66002DE9F047D0
:102C6000814616468AB0334878440DC88DE80D0079
:102C700030487844801C03AC0DC884E80D0041F650
:102C80009B300844372190FBF1F290FBF1F5A5F160
:102C9000800501FB12041B3C02D56442012000E0C8
:102CA0000020DFF890A080460027FA44AAF1BE0A6F
:102CB0000DE0E00709D03246684607EB47010AEB12
:102CC000810100F032FB8DE8070064107F1C002CAE
:102CD000EFD1184F7F44AC3F18E0E80714D007EB62
:102CE00004100DF1180A90E80E008AE80E00C06882
:102CF000F04201D198190890324606A903A800F0C5
:102D000014FB03AB83E807006D10641C002DE4D1B5
:102D100032466946B8F1000F03A802D000F0F1FA7C
:102D200001E000F002FBC9E90001C9F808200AB07F
:102D3000BDE8F08730330000007B00F08000704772
:102D4000004870470C0D00207546FFF7F9FFAE46AE
:102D500005006946534620F00700854618B020B5A7
:102D6000FEF71CFCBDE820404FF000064FF00007C6
:102D70004FF000084FF0000B21F00701AC46ACE823
:102D8000C009ACE8C009ACE8C009ACE8C0098D4690
:102D900070470446AFF300802046FDF71FFA00009D
:102DA0004FF0013C50F8042B51F8043B9A4221D1DA
:102DB000A2EB0C03934313EACC1317D150F8042B66
:102DC00051F8043B9A4215D1A2EB0C03934313EA4A
:102DD000CC130BD150F8042B51F8043B9A4209D183
:102DE000A2EB0C03934313EACC13DBD04FF00000AB
:102DF000704700BFD01A01BAB1FA81F101F0180191
:102E000022FA01F0CB40C1F12001DBB2C0B2C01AFE
:102E10002CFA01F3D11A914311EAC311E6D170479C
:102E20005FEA400C08BF91F0000F4FEA8C234FEA95
:102E3000C12243EA51514FEA1C5018BF00F5F0403F
:102E40004FEA300018BF41F000415FEA6C5C00F0CF
:102E50002980BCF1FF3F08BF40F080407047130C51
:102E600006BF12044FF0100C4FF0000C130E04BFFD
:102E700012020CF1080C130F04BF12010CF1040C28
:102E8000930F04BF92000CF1020CD30F04BF520049
:102E90000CF1010C11464FF00002A0F11F00A0EB55
:102EA0000C00704711F0004F08BF704731F000412F
:102EB0003FF4D5AF0B0C06BF09044FF0100C4FF0D8
:102EC000000C0B0E04BF09020CF1080C0B0F04BF21
:102ED00009010CF1040C8B0F04BF89000CF1020CEA
:102EE000CB0F04BF49000CF1010CCCF12003A0EB87
:102EF0000C0022FA03F302FA0CF241EA030100F19A
:102F00000100704720F07F4C80EA030023F07F47E8
:102F1000ACEB070303F57C5300F0004003F1FF0323
:102F20002DE980494FEA154B09B44FEA144325EACD
:102F30000B4E24EA03480FF2042606EB1327490838
:102F40003E785FEA320203FB0667C7F5000707FB1E
:102F500006F64FEA54374FEAD64606F1020607FB5B
:102F6000066CCCF1005C4FEA1C472CEA074C07FBCF
:102F700006F40CFB06F504EB15464FEA961634BF33
:102F800000204FF000404FEAD13706FB07FC4FEA24
:102F90001C4C0CFB0BF7D21B03FB0CF761EB07017E
:102FA0000CFB0EF7B0EB074072EB17420CFB08F777
:102FB00034BFA2EB0742B2EB074261EB17414FEA85
:102FC0000C444FEA910706FB07FC4FEA1C4C0CFB34
:102FD0000BF7B0EBC74072EB573203FB0CF734BF73
:102FE000A2EBC742B2EBC74261EB57310CFB0EF7C5
:102FF000B0EBC70072EB57720CFB08F734BFA2EBC3
:10300000C702B2EBC70261EB5771039F4FEA8161C0
:1030100041EA921104EBCC044FEAD1374FEA8262C5
:1030200006FB07FC42EA90124FEA80604FEA1C4C14
:103030000CFB0BF7D21B03FB0CF761EB07010CFB3E
:103040000EF7B0EB074072EB17420CFB08F734BFEA
:10305000A2EB0742B2EB074261EB17414FEA8C55F6
:103060004FEA910704EB9C2406FB07FC4FEA1C4C3B
:103070000CFB0BF7B0EBC74072EB573203FB0CF7BE
:1030800034BFA2EBC742B2EBC74261EB57310CFB36
:103090000EF7B0EBC70072EB57720CFB08F734BFAA
:1030A000A2EBC702B2EBC70261EB577115EB4C25DF
:1030B0004FEA816141EA92114FEA82624FEAD137C9
:1030C00042EA901206FB07FC44F100044FEA8060DC
:1030D0004FEA1C4C0CFB0BF7D21B03FB0CF761EB0C
:1030E00007010CFB0EF7B0EB074072EB17420CFB2D
:1030F00008F734BFA2EB0742B2EB074261EB17417E
:1031000015EB1C154FEA813141EA92414FEA8232B8
:1031100042EA90424FEA80304FEA0C7644F10004D4
:1031200048EA03434EEA0B484FF0000EB2EB080C9E
:1031300071EB030724BF624639464EEB0E0E4FF08B
:10314000000B0018524149414BEB0B0BB2EB080C42
:1031500071EB03077BF1000B24BF624639464EEB4F
:103160000E0E4FF0000B0018524149414BEB0B0B78
:10317000B2EB080C71EB03077BF1000B24BF624636
:1031800039464EEB0E0E51EA020718BF46F0010613
:1031900016EB0E7655F1000254F1000103D5BDE89F
:1031A0008901BDE80088BDE88901BDE80048B6197D
:1031B000524141EB0101A3F10103704780807F7E02
:1031C0007D7C7B7A7978777676757473727171709D
:1031D0006F6E6E6D6C6C6B6A6A696868676666654F
:1031E0006464636362616160605F5F5E5E5D5D5CDD
:1031F0005C5B5B5A5A59595858575756565555554E
:103200005454535352525251515050504F4F4F4EAD
:103210004E4D4D4D4C4C4C4B4B4B4A4A4A494949FB
:10322000484848474747474646464545454444443D
:10323000444343434342424242414141002B26D44E
:10324000770021D01CB54FEA370703B44FF01000C8
:103250004FF010014FF000000FBCBDE810400BF123
:10326000010BBBF1010F08BF5FEA170722BF12F184
:10327000010211F101014FF0004143F1000300F0A0
:10328000004043EA00007047F9D35708DAE746EAFE
:10329000064613F1400F4FEA16461FDD13F1200FCB
:1032A000DFBF16430A46002120335B42C8D0C3F17A
:1032B000200746EA064602FA07F74FEA164646EAAC
:1032C0000706C3F1200722FA03F201FA07F721FAF1
:1032D00003F14FF0000342EA0702B1E746EA0206B3
:1032E00046EA06464FEA164646EA0106BCBF46EAEB
:1032F0000646360C4FF000034FF000024FF000017D
:103300009EE72DE9C048934630B491E8380007C8DD
:1033100031EA400C48BF34EA430C03D5FFF7F2FD15
:10332000FFF78CFFF0BCBDE800882DE9C04893464C
:1033300030B491E8380007C810F0804F08BF13F090
:10334000804F03D100F005F8FFF778FFF0BCBDE82F
:10335000008820F07F4780EA030023F07F4C07EBD2
:103360000C03A3F57C5300F00040A3F1FE0392F0A0
:10337000000F00F0B38095F0000F00F077802DE98A
:1033800001494FEA11404FEA144621EA004800FB88
:1033900006FC24EA064708FB06F607FB08F800FBD4
:1033A00007F718EB06484CEB164C4FEA124B18EB9C
:1033B00007484FEA15464CEB174022EA0B4E0BFB31
:1033C00006FC25EA06470EFB06F607FB0EFE0BFB86
:1033D00007F71EEB064E4CEB164C4FF000061EEBAB
:1033E000074E4CEB174B18EB0B0840F1000018EBA5
:1033F0000E0B58EB000840F100008F1A4FF000014F
:103400003CBFC943661B14BFB5EB040C00213CBF95
:10341000C943F61B4FEA17444EEA8E0E27EA0445CD
:103420004FEA1C4704FB07622CEA074C05FB07F731
:103430000CFB05F604FB0CFC16EB074642EB1742AF
:1034400016EB0C4642EB1C421BEB060658EB020245
:10345000414146EA9E0601D5BDE80189B6195241AF
:1034600041EB0101A3F10103BDE801894FEA1445D5
:103470004FEA114724EA054621EA074C05FB07F409
:1034800006FB07F70CFB06F105FB0CFC11EB0741F3
:1034900044EB17444FEA124711EB0C4144EB1C4438
:1034A00022EA074C05FB07F206FB07F70CFB06F6C2
:1034B00005FB0CFC16EB074642EB174216EB0C46DD
:1034C00042EB1C456A1854F1000148BF7047B61919
:1034D000524141EB0101A3F10103704795F0000F48
:1034E00037D04FEA11424FEA144721EA024624EA54
:1034F000074C02FB07F106FB07F70CFB06F402FB87
:103500000CFC14EB074441EB17414FEA154714EB51
:103510000C4441EB1C4125EA074C02FB07F506FB76
:1035200007F70CFB06F602FB0CFC16EB074645EB17
:10353000174516EB0C4645EB1C42121951F10001E0
:1035400048BF7047B619524141EB0101A3F1010395
:1035500070474FEA14454FEA114724EA054621EA2D
:10356000074C05FB07F106FB07F70CFB06F24FF0D3
:10357000000605FB0CFC12EB074241EB174112EB76
:103580000C4251EB1C4148BF7047921841EB0101BE
:10359000A3F101037047490050EAC12018BF04207D
:1035A0004A0D18BF40F0010040F2FF72B2EB515FCC
:1035B00008BF40F00200012808BF052070473038DE
:1035C0000A2801D2012070470020704710B5002959
:1035D0000AD00878002807D005487844FFF7E0FBB8
:1035E000002801D0002010BD0248784410BD000022
:1035F000FA290000F229000021F00042A2F16052F5
:10360000B2F5801F01F0004328BFD2F17F6C0BD9C7
:103610005FEA001C43EAC20242EB507018BF7047D9
:1036200028BF20F001007047B2F5801FBCBF1846CC
:1036300070474FEA410C1CF5001F02D2084600F00B
:1036400060BD70B500F0CCFA00000089FFF7F6BF4E
:103650004FF00040A0F580007047000010B591EADF
:10366000030F48BF83F0004300F11683841A71EB07
:10367000030C05D2121943EB0C03001B61EB0C0188
:10368000DFF824E14FEA1154A4EB135C1EEA430F68
:1036900018BF9EEA445F73D023EA0E03DCF1200ECC
:1036A00021EA045143F4801332D322FA0CFE10EBCA
:1036B0000E0023FA0CFE41EB0E01CCF1200E03FAB2
:1036C0000EFE10EB0E0051F10001B1F5801FCCF1A0
:1036D000200E32D201EB045112FA0EF2BDE8104076
:1036E00058BF7047401C38BF5FEA420218BF70479E
:1036F000002814BF20F0010041F100014FEA41030E
:1037000013F5001F38BF7047A1F1C04100F0B6BAF1
:10371000012A43EB0302ACF1200CDCF11F0E32BF97
:103720004FF0000E23FA0CF310EB030041EB0451B1
:10373000B4EB115FD0D0A1EB045101F58011490821
:103740005FEA300001EB04510ED350F1000038BFA6
:1037500012FA0EFE08D1BDE81040C9E7401C38BF80
:103760005FEA4202CAD1C3E7BDE810404FEA410315
:1037700013F5001F38BF7047A1F1C04100F07EBAB9
:103780009EEA445F08D011EA5E0FBDE8104004BF16
:1037900001F0004100207047BDE8104070B500F016
:1037A0001FFA00BF64FBBE3E0000E0FF2DE9C041F0
:1037B00030B4DFF8A0C23CEA111418BF3CEA13147D
:1037C00000F0EC8081EA03051CEA111444EAD57488
:1037D00018BF1CEA131500F0C780A4EB05044FF0D6
:1037E000004545EAC12145EAC32341EA505143EA75
:1037F000525304F17F74994204F500344FEAC0201B
:103800004FEAC22208BF904200F09C804FEA136545
:103810000FF24016765D4FEA134506FB05F7C7F138
:10382000807706FB07F74FEAD737A7FB0368764296
:10383000C8F58038A7FB06CE38BFA8F1010807FB02
:1038400008E64FF0000EA6FB028CE6FB03CEDCF18F
:10385000000CCEF1004E38BFAEF1010EA6FB0C58A5
:103860004FF000074FF00005E6FB0E87A1FB08C6EE
:10387000A0FB07CE16EB0E0645F10005E1FB076540
:1038800015F1E04E7EBFA4F580345FEA46066D4137
:1038900016F1800745F100054FEA17274FEA066643
:1038A00047EA0567A6F1DE46B6F1805F4FEA1525C7
:1038B0001FD9384624F0010C05EBC471BCF1FE6F32
:1038C00001EB0C1102D8F0BCBDE8008124425CBFC2
:1038D00001F5801E9EEAC47F02D4F0BCBDE80081E1
:1038E000244238D4F0BCA1F1C041BDE8004100F051
:1038F000C5B94FEAD22242EA43524FEAD323A7FB8B
:1039000002864FEAD02040EA415007FB03661EEAD8
:103910000E0F4FEAD12105FB026658BFA6EB0056F9
:10392000B6EB00564FEA520E4EEAC37E18EB0E0E6F
:1039300056EB530EBDD518EB02085E417F1C55F1C6
:103940000005B6E74FF480154FF000074FF0000672
:103950004FF00008ADE7F0BC4FF0000001F1C041AE
:1039600001F00041BDE8008111EA0C1F0CEA1315BB
:1039700000D00CE013EA0C1F00F025804FF000008F
:10398000F0BC81EA030101F00041BDE80081F0BC18
:10399000BDE8004181EA030100F070B9F0BCBDE868
:1039A000004170B500F01CF9097EFC3E00F007B83C
:1039B00081EA03014FF0000001F00041704781EA05
:1039C000030100F05BB9F0BCBDE800414FF000001E
:1039D00021497047FFFDFBF9F7F5F4F2F0EEEDEB4E
:1039E000E9E8E6E4E3E1E0DEDDDBDAD8D7D5D4D3FD
:1039F000D1D0CFCDCCCBCAC8C7C6C5C4C2C1C0BF49
:103A0000BEBDBCBBBAB9B8B7B6B5B4B3B2B1B0AF4E
:103A1000AEADACABAAA9A8A8A7A6A5A4A3A3A2A132
:103A2000A09F9F9E9D9C9C9B9A99999897979695ED
:103A300095949393929191908F8F8E8E8D8C8C8B89
:103A40008B8A898988888787868585848483838211
:103A5000828181800000FF070000F87F10F00042A3
:103A600048BF4042B0FA80F310FA03F10AD0C3F124
:103A70001D0303F580634FEA415002EB035202EB52
:103A8000D12170474FF0000070470000DFF848C1B7
:103A900070B51CEA111E1EBF1CEA13159EEA0C0F1E
:103AA00095EA0C0F00F06F8081EA030423EA4C13BF
:103AB0004EEAD47E21EA4C1141F4801143F4801384
:103AC000AE44A1FB024CA0FB0365AEF17F7E36192C
:103AD00055EB0C05A1FB034C4CF10003A0FB021CB1
:103AE00016EB0C06654153F10003094218BF46F07E
:103AF000010613F4007F0BD14FEA03314FEA053082
:103B0000340341EA155140EA16506FF003020AE00F
:103B10004FEAC3214FEAC520F40241EA555140EA79
:103B200056506FF0020202EB2E4201EB025585EA7D
:103B3000CE710AD05FEA440C18BF24F0004450F163
:103B4000000041F1000120EAD47040F2FE7C6245A1
:103B500000D270BDA84214BF4FF080444FF04044E3
:103B6000002E08BF0024BEF1806FA8BFA1F1C041A4
:103B7000BDE8704080F282804FF0000001F1C0414A
:103B800001F0004170479EEA0C0F0CEA131518BFB4
:103B900095EA0C0F06D04FF0000081EA030E0EF0FC
:103BA000004170BD00F01CF88900013E00F007B82C
:103BB00000F009B84FEA430C5FEA5C5C08D081EA88
:103BC000030100F05BB84FEA410C5FEA5C5CF6D1A0
:103BD0004FF00000014970470000FF070000F87F28
:103BE0000EF1020E2EF0030E5EF8046B364205D481
:103BF000012A43EB030515F5001F12D8012841EBFC
:103C0000010C1CF5001F0CD80ED14FEAD17C15F524
:103C1000001F0CEB4C0C0CF1020C08BF4CEBD37CDE
:103C200004E04FF0080C01E04FEAD37C0CEB4C05AC
:103C300026FA05F606F00706B6F1040C06D20EEBDE
:103C4000860CBDE870404CF0010C6047DFE80CF0DA
:103C5000090B02024FF000414FF00000A1F50021D6
:103C600070BD19461046012851EB010418BFD4F568
:103C7000001484BF002001F0004170BD0808A0F5C9
:103C800000114FEA3101704710B591EA030F48BFA8
:103C900083F000433FF5EAAC841A71EB030C07D2C2
:103CA00012198CF0004C43EB0C03001B61EB0C0170
:103CB000DFF8A4E14FEA1154A4EB135C1EEA430FB2
:103CC00018BF9EEA445F00F0B08023EA6E035242C0
:103CD00021EA0451C3EB6E0338BF5B1EDCF1200EFA
:103CE00025D322FA0CFE10EB0E0043FA0CFE41EB3A
:103CF0000E01CCF1200E03FA0EFE10EB0E0051F176
:103D00000001CCF1200E29D412FA0EF201EB04517D
:103D1000BDE8104058BF7047401C1CBFB2F1004FB7
:103D2000704700280CBF491C20F00100704712EBBF
:103D3000020E43EB030218BF4FF0010E4EEA42029F
:103D4000ACF1200CDCF11E0E54D943FA0CFE10EB42
:103D50000E0051F1FF31CCF11E0ED5D50EF1010E42
:103D600012FA0EFE404141EB010101EB445C5FEAB7
:103D70005C5C10D910EBDE7001EB045138BFBEF172
:103D8000004FBDE8104018BF704700280CBF491C09
:103D900020F00100704730D24FEAD42C11F5001109
:103DA00024F400641BD0B1FA81F20B3AA41AA41EC9
:103DB000D2F12003914030FA03F31943904001EB14
:103DC000CC71002C01EB0451BDE81040A8BF704736
:103DD00001F1C0414FF0000001F000417047B0FA1E
:103DE00080F310FA03F100D110BDE41A173C480526
:103DF000C90AE4E701EB045110BD491001EB04517D
:103E0000BDE810404FEA300002E04FF0000170477B
:103E10004A0008BF0042F8D0B2F5001F28BF704723
:103E200001F000414FF0000070479EEA445F07D068
:103E300011EA5E0FBDE8104004BF0021002070476A
:103E4000BDE8104070B5FFF7CBFE00BF40DFF63E87
:103E500083F00041104670470000E0FF43004FEA46
:103E6000D30C4FEA3C0C43401FBF40070CF160519C
:103E700013F0FE4F70471CF0006F03D100200CF0D0
:103E8000004170470CF0004343EA507010B540EA1F
:103E9000CC0000F0F0F800BF000000924FEA0001F3
:103EA000FFF7ECBE4FF000414FF00000A1F50021FC
:103EB0007047401058BFC0F14040491058BFC1F191
:103EC00040418142EFF3008070470000C10DD1F105
:103ED0009E0206DB4FEA002343F0004323FA02F080
:103EE0007047004207D54FEA4001B1F1FE4F02D2C0
:103EF0004FF00000704710B500F0BDF849922480E3
:103F0000002070476FEA20007047000050EA010C63
:103F100000F113801CF5000F58BFBCF5000F01D451
:103F20008842704707D710F5000F58BF11F5000FF2
:103F300015D488427047894270471CF5000F04D59C
:103F4000BCF5000FF7D5814270474FF0807C1CEB29
:103F5000400F38BF1CEB410F01D28142704710B5B2
:103F600000F089F8922449004FF000504FF0805142
:103F7000FFF79FBF4FF47F0C1CEAD0121EBF1CEA54
:103F8000D11392EA0C0F93EA0C0F00F0478090EAED
:103F9000010F48BF42F480724FF0004C4CEA002001
:103FA0004CEA012102EB0302A0FB0113A2F500027F
:103FB000002918BF43F001035B0028BF4FEA330319
:103FC00042EB22425FEA132C4CEBC2502EBFBCEBFB
:103FD000436FB2F57C0F70474FEA036CBCF1004FA2
:103FE00008BF20F00100B2F57C0F38BF70470BD539
:103FF00082F0FF0212F5803FC8BF704700F1C04059
:10400000D8BF00F00040704700F5000C5FEA4C0C90
:1040100048BF7047B0F1C04000F073B890EA010F9C
:104020000CEAD11348BF42F48072624538BF634541
:1040300004D280EA010000F00040704710B500F0A3
:104040001AF800BF8900013E00F007B800F009B877
:104050005FEA410C5FEA1C6C08D080EA010000F0C6
:1040600050B85FEA400C5FEA1C6CF6D14FF000409C
:10407000A0F5800070470EF1020E2EF0030E5EF8E0
:10408000044B244204D44FEA4102B2F17F4F11D8CD
:104090004FEA4003B3F17F4F0CD80ED14FEAD07CEA
:1040A000B2F17F4F0CEB4C0C0CF1020C08BF4CEB47
:1040B000D17C04E04FF0080C01E04FEAD17C0CEB1E
:1040C0004C0324FA03F404F00704B4F1040C06D200
:1040D0000EEB840CBDE810404CF0010C6047DFE8AB
:1040E0000CF0070802024FF00040A0F5800010BD60
:1040F0000846420018BFD2F1807288BF00F000402D
:1041000010BDFF2141EAD050C0057047FEF7BCBB8F
:104110000000000000000000002F00000000070069
:10412000070000147F147F1400242A7F2A120062E3
:10413000640813230036495522500000050300008F
:1041400000001C224100000041221C000014083E17
:1041500008140008083E0808000000A060000008DD
:104160000808080800006060000000201008040231
:10417000003E5149453E0000427F400000426151EF
:104180004946002141454B31001814127F10002789
:1041900045454539003C4A4949300001710905034C
:1041A00000364949493600064949291E000036367D
:1041B00000000000563600000008142241000014E0
:1041C00014141414000041221408000201510906BD
:1041D00000324959513E007C1211127C007F49493E
:1041E0004936003E41414122007F4141221C007F6F
:1041F00049494941007F09090901003E4149497A7D
:10420000007F0808087F0000417F410000204041F6
:104210003F01007F08142241007F40404040007F62
:10422000020C027F007F0408107F003E4141413EA6
:10423000007F09090906003E4151215E007F0919EE
:1042400029460046494949310001017F0101003FEB
:104250004040403F001F2040201F003F4038403F6B
:1042600000631408146300070870080700615149CF
:10427000454300007F41410000552A552A55000062
:1042800041417F00000402010204004040404040E0
:10429000000001020400002054545478007F484478
:1042A000443800384444442000384444487F0038AF
:1042B0005454541800087E0901020018A4A4A47CD8
:1042C000007F080404780000447D400000408084A2
:1042D0007D00007F102844000000417F4000007CEA
:1042E00004180478007C08040478003844444438F6
:1042F00000FC242424180018242418FC007C080442
:10430000040800485454542000043F444020003C1A
:104310004040207C001C2040201C003C4030403CA1
:10432000004428102844001CA0A0A07C0044645431
:104330004C44141414141414000000000000000075
:10434000000000000000FC0000000000020000006F
:10435000000C020C020000000000000090D0BCD055
:10436000BC900003000300001824FE448C000302EC
:10437000070201001824D8B04C800003000102019C
:10438000C038E438E0000102020102020806000021
:104390000000000000000000000000F8040200001F
:1043A00000010204000204F8000000040201000001
:1043B0009060F86090000000010000002020FC20C8
:1043C00020000000010000000000000000000806BE
:1043D000000000002020202020000000000000003D
:1043E0000000000000000002000000000080601CCF
:1043F0000200040300000000F8040404F8000102B5
:10440000020201000008FC0000000002030200009C
:104410001884442418000302020202000804242421
:10442000D80001020202010040B088FC80000000B8
:10443000000302003C242424C40001020202010003
:10444000F824242CC0000102020201000C04E41C28
:104450000400000003000000D8242424D800010236
:104460000202010038444444F80000030202010043
:10447000000010000000000002000000000020000A
:104480000000000006000000002050880402000028
:104490000000010290909090900000000000000049
:1044A0000002048850200002010000001804C42407
:1044B0001800000002000000F804E494F800010273
:1044C0000202020000E09CF08000020300000302F0
:1044D00004FC2424D800020302020100F8040404AE
:1044E0000C0001020202010004FC0404F8000203B3
:1044F0000202010004FC24740C0002030202030007
:1045000004FC24740C00020302000000F0080444C0
:10451000CC4000010202010004FC2020FC04020344
:10452000000003020404FC0404000202030202006F
:10453000000404FC040406040403000004FC24D06A
:104540000C0402030200030204FC04000000020346
:1045500002020203FC3CC03CFC0003000300030019
:1045600004FC30C4FC04020302000300F804040449
:10457000F80001020202010004FC242418000203D6
:1045800002000000F8848404F8000102020705001C
:1045900004FC24649800020302000302182424444B
:1045A0008C000302020201000C04FC040C00000257
:1045B0000302000004FC0000FC04000102020100F0
:1045C000047C80E01C040000030000001CE03CE0D0
:1045D0001C00000300030000049C609C0400020314
:1045E00000030200041CE01C04000002030200009F
:1045F0000C84641C04000203020203000000FE029B
:104600000200000007040400000E30C0000000009B
:1046100000010200000202FE000000040407000086
:104620000004020400000000000000000000000080
:104630000000080808080808000002000000000048
:10464000000000000040A0A0C00000010202030220
:1046500004FC2020C00000030202010000C0202052
:10466000600000010202020000C02024FC000001E2
:104670000202030200C0A0A0C0000001020202006A
:104680000020F82424040002030202000040A0A03D
:10469000602000070A0A0A0404FC2020C00002036C
:1046A000020003020020E4000000000203020000F8
:1046B000000020E4000008080807000004FC80E077
:1046C00020200203020003020404FC000000020296
:1046D00003020200E020E020C0000300030003000A
:1046E00020E02020C00002030200030200C02020BE
:1046F000C00000010202010020E02020C000080FDD
:104700000A02010000C02020E0000001020A0F0898
:1047100020E0402020000203020000000060A0A072
:1047200020000002020203000020F8200000000028
:104730000102020020E00020E0000001020203026A
:1047400020E0208060200000030100006080E08005
:10475000600000030003000020608060200002036E
:104760000003020020E0208060200808070100000C
:104770000020A0602000000203020200000020DEF2
:104780000200000000070400000000FF000000001D
:10479000000F00000002DE200000000407000000FF
:1047A00002010204040200000000000000000000FA
:1047B000000000000000000000000000000000F801
:1047C00000000000000000333000000000100C0664
:1047D000100C0600000000000000000040C07840FF
:1047E000C0784000043F04043F040400007088FCCB
:1047F00008300000001820FF211E0000F008F00023
:10480000E018000000211C031E211E0000F0088893
:10481000700000001E2123241927211010160E00FD
:10482000000000000000000000000000000000E0A8
:1048300018040200000000071820400000020418BD
:10484000E00000000040201807000000404080F019
:10485000804040000202010F01020200000000F04F
:10486000000000000101011F010101000000000023
:104870000000000080B07000000000000000000098
:104880000000000000010101010101010000000021
:1048900000000000003030000000000000000000B8
:1048A00080601804006018060100000000E0100895
:1048B0000810E000000F102020100F00001010F86A
:1048C000000000000020203F2020000000700808A9
:1048D0000888700000302824222130000030088829
:1048E000884830000018202020110E000000C02051
:1048F00010F8000000070424243F240000F8088872
:10490000880808000019212020110E0000E01088FE
:1049100088180000000F112020110E000038080830
:10492000C83808000000003F000000000070880840
:1049300008887000001C222121221C0000E01008C1
:104940000810E0000000312222110F00000000C01A
:10495000C0000000000000303000000000000080B7
:1049600000000000000080600000000000008040A7
:1049700020100800000102040810200040404040C0
:104980004040400004040404040404000008102013
:104990004080000000201008040201000070480858
:1049A0000808F0000000003036010000C030C828C0
:1049B000E810E0000718272423140B000000C0387B
:1049C000E0000000203C23020227382008F88888F5
:1049D00088700000203F202020110E00C030080801
:1049E00008083800071820202010080008F80808D8
:1049F0000810E000203F202020100F0008F88888D1
:104A0000E8081000203F20202320180008F888889C
:104A1000E8081000203F200003000000C030080814
:104A20000838000007182020221E020008F808009D
:104A30000008F808203F210101213F20000808F864
:104A4000080800000020203F202000000000080887
:104A5000F8080800C08080807F00000008F888C047
:104A600028180800203F20012638200008F80800F8
:104A700000000000203F20202020300008F8F8002F
:104A8000F8F80800203F003F003F200008F830C041
:104A90000008F808203F200007183F00E010080831
:104AA0000810E0000F10202020100F0008F8080860
:104AB0000808F000203F210101010000E010080873
:104AC0000810E0000F18242438504F0008F8888898
:104AD00088887000203F2000030C30200070880878
:104AE000080838000038202121221C00180808F886
:104AF000080818000000203F2000000008F8080007
:104B00000008F808001F202020201F0008788800D7
:104B100000C83808000007380E010000F80800F847
:104B20000008F800033C0700073C030008186880F1
:104B30008068180820302C03032C30200838C80067
:104B4000C83808000000203F2000000010080808B6
:104B5000C83808002038262120201800000000FE58
:104B6000020202000000007F40404000000C30C004
:104B700000000000000000010638C0000002020230
:104B8000FE000000004040407F00000000000402E2
:104B9000020204000000000000000000000000000D
:104BA00000000000808080808080808000020204FD
:104BB00000000000000000000000000000008080F5
:104BC000808000000019242222223F2008F8008063
:104BD00080000000003F112020110E000000008026
:104BE00080800000000E11202020110000000080B5
:104BF0008088F800000E112020103F2000008080E7
:104C000080800000001F222222221300008080F0FA
:104C1000888888180020203F202000000000808025
:104C200080808000006B94949493600008F800806A
:104C300080800000203F210000203F2000809898C5
:104C4000000000000020203F202000000000008025
:104C50009898000000C08080807F000008F8000065
:104C600080808000203F24022D302000000808F8BA
:104C7000000000000020203F202000008080808075
:104C800080808000203F20003F20003F8080008007
:104C900080800000203F210000203F200000808015
:104CA00080800000001F202020201F0080800080C6
:104CB0008000000080FFA12020110E000000008075
:104CC00080808000000E112020A0FF808080800066
:104CD0008080800020203F21200001000000808093
:104CE000808080000033242424241900008080E088
:104CF000808000000000001F202000008080000055
:104D000000808000001F202020103F208080800035
:104D10000080808000010E30080601008080008045
:104D2000008080800F300C030C300F00008080006A
:104D3000808080000020312E0E3120008080800095
:104D40000080808080818E70180601000080808045
:104D5000808080000021302C2221300000000000E3
:104D6000807C020200000000003F40400000000084
:104D7000FF00000000000000FF0000000002027CB5
:104D8000800000000040403F0000000000060101DC
:104D90000202040400000000000000000000000007
:104DA0000000000000000000000000000000000003
:104DB00000000000000000000000000000000000F3
:104DC0000000000000F0F0F0000000000000000013
:104DD00000017F010000000000000000001C1C1CFE
:104DE0000000000000008060301C8C60301C0C0053
:104DF00000000000000000000000000000000000B3
:104E00000000000000000000000000E000000000C2
:104E100000E000000086E69F86868686E69F860084
:104E200000011F01010101011F010100000080C0FC
:104E30006020F820E0C00000000003070C18FF709D
:104E4000E18100000000070F10107F100F07000025
:104E50008060206080000000E02000000F302030E3
:104E60009F70DC371030C0000000100E03000718E0
:104E7000101807000000C02020E0C0000000000063
:104E800080E01F38E88703C43C040000070F1810B7
:104E9000100B070D1010080000808C4C380000002B
:104EA0000000000000000000000000000000000002
:104EB00000000000000000000000000000000000F2
:104EC000000080E0300804000000000000FEFF0148
:104ED00000000000000000000000030F1820400048
:104EE00000040830E0800000000000000000000026
:104EF00001FFFE0000000000004020180F0300002A
:104F000000000000000000000000C00000000000E1
:104F1000004266663C18FF183C66664200000000CE
:104F200000000300000000000000000000008000FE
:104F300000000000001010101010FF1010101010D2
:104F4000000000000000030000000000000000005E
:104F50000000000000000000000000000000000051
:104F60000000000000808C4C3800000000000000B1
:104F70000000000000000000000000000010101001
:104F800010101010101010000000000000000000B1
:104F90000000000000000000000000000000000011
:104FA00000000000000000000000000000001C1CC9
:104FB0001C000000000000000000000000000000D5
:104FC000E0380C000000000080701C0300000000AE
:104FD0000060380E0100000000000000000080C0EA
:104FE00060202060C080000000FEFF010000000083
:104FF00001FFFE000001070E181010180E07010037
:105000000000808080C0E000000000000000000080
:1050100000FFFF000000000000001010101F1F1014
:10502000101000000080402020202060C080000080
:1050300000030300804020381F070000001C1A19DD
:1050400018181818181F00000080C020202060C009
:1050500080000000000303001010182FE7800000FC
:1050600000070F10101010180F07000000000000BC
:105070000000C0E0F000000000C0B088868180FF22
:10508000FF808000000000000010101F1F101000A3
:105090000000E060606060606060000000003F1041
:1050A00008080818F0E0000000070B101010101C92
:1050B0000F030000000080C040202020E0C000005E
:1050C00000FCFF211008080818F0E0000001070CA0
:1050D00018101010080F03000000C0E0606060604E
:1050E00060E06000000003000000E018070000001E
:1050F00000000000001F1F00000000000080C060D2
:105100002020202060C080000087EF2C181830304D
:1051100068CF830000070F0810101010180F070049
:105120000000C0C020202020C0800000001F3F6081
:105130004040402010FFFE0000000C1C1010100822
:105140000F0300000000000000000000000000004D
:1051500000000000000E0E0E000000000000000025
:10516000001C1C1C000000000000000000000000EB
:105170000000000000000000000C0C000000000017
:10518000000000000058380000000000000000008F
:105190000000008040201000000010284482010020
:1051A00000000000000000000000010204081000E0
:1051B0000000000000000000000000000084848463
:1051C0008484848484848400000000000000000043
:1051D00000000000000010204080000000000000DF
:1051E00000000000000001824428100000001008A8
:1051F000040201000000000000C020201010101068
:1052000030E0C0000003030000F010080C070300AA
:10521000000000001C1C1C0000000000000000C07A
:10522000406020202040C00000FCFF01F00E03C1C0
:10523000FE03807F0001070E0811111011090402FE
:105240000000000080E0E000000000000000807C22
:105250004340477FF880000010181F100000000036
:10526000131F1C1020E0E02020202060C0800000E0
:1052700000FFFF10101010182FE78000101F1F10E4
:1052800010101010180F0700000080C040202020D0
:105290002060E00000FCFF010000000000000100B1
:1052A0000001070E181010100804030020E0E02091
:1052B00020202040C080000000FFFF000000000010
:1052C00001FFFE00101F1F10101018080E0701002C
:1052D00020E0E020202020202060800000FFFF1040
:1052E0001010107C00000000101F1F101010101074
:1052F0001018060020E0E0202020202060608000C0
:1053000000FFFF101010107C00000100101F1F1084
:105310000000000000000000000080C0602020208D
:1053200040E0000000FCFF0100004040C0C14040E0
:105330000001070E181010100F0F000020E0E020F1
:105340000000000020E0E02000FFFF10101010100F
:1053500010FFFF00101F1F1000000000101F1F1083
:105360000000202020E0E0202020000000000000BD
:1053700000FFFF000000000000001010101F1F10B1
:105380001010000000000000202020E0E02020207D
:1053900000000000000000FFFF0000000060E0804F
:1053A0008080C07F3F00000020E0E020000020A0BF
:1053B0006020200000FFFF30187CE3C000000000E8
:1053C000101F1F10000001131F1C181020E0E02008
:1053D000000000000000000000FFFF0000000000CF
:1053E00000000000101F1F101010101010180600F1
:1053F00020E0E0E000000000E0E0E02000FF013FEE
:10540000FEC0E01E01FFFF00101F1000031F03007D
:10541000101F1F1020E0E0C0000000000020E0206E
:1054200000FF0003071C78E08000FF00101F100041
:1054300000000000030F1F00000080C060202060FB
:10544000C080000000FEFF010000000000FFFE0021
:105450000001070E181010180C07010020E0E020D2
:105460002020202060C0800000FFFF20202020207E
:10547000301F0F00101F1F10000000000000000070
:10548000000080C060202060C080000000FEFF019E
:105490000000000000FFFE000001070E1111133C88
:1054A0007C67210020E0E0202020202060C08000D8
:1054B00000FFFF101030F0D0080F0700101F1F1062
:1054C000000000030F1C10100080C060202020206E
:1054D0004040E00000070F0C1818303060E08100F9
:1054E000001F0C0810101010180F070080602020FB
:1054F00020E0E020202060800100000000FFFF008D
:105500000000000100000000101F1F10000000003C
:1055100020E0E020000000000020E02000FFFF006D
:10552000000000000000FF0000070F18101010100E
:10553000100807002060E0E02000000020E060206C
:105540000000077FF88000807C030000000000005E
:10555000071F1C070000000020E0E02000E0E02022
:105560000020E0200007FFF8E01FFFFCE01F000024
:105570000000031F0300011F03000000002060E083
:10558000A0000020E0602000000000038F7CF8C62F
:10559000010000000010181E130001171F18100052
:1055A0002060E0E02000000020E060200000010713
:1055B0003EF8E0180700000000000010101F1F1048
:1055C0001000000000806020202020A0E0E02000EB
:1055D00000000000C0F03E0F0300000000101C1F80
:1055E00017101010101806000000000000FC040442
:1055F000040404000000000000FF000000000000A0
:1056000000000000007F404040404000000010E0EB
:10561000000000000000000000000000031C60808B
:105620000000000000000000000000030C7080007B
:1056300000000404040404FC00000000000000005A
:10564000000000FF00000000000040404040407F9C
:105650000000000000000010080C040C08100000FE
:10566000000000000000000000000000000000003A
:10567000000000000000000000000000000000002A
:10568000000000000000000000000000000000001A
:105690008080808080808080808080800000000406
:1056A00004080800000000000000000000000000E6
:1056B00000000000000000000000000000000000EA
:1056C000000000000000000000000000000098D86A
:1056D00044642424FCF80000000F1F181010100868
:1056E0001F1F10180020E0F0000000000000000064
:1056F0000000FFFF180804040CF8F00000001F0F62
:1057000018101010180F0300000000000000000027
:105710000000000000E0F8180404043C3800000019
:1057200000030F0C1010101008060000000000000D
:1057300000000020E0F0000000E0F81C0404040871
:10574000FFFF000000030F18101010081F0F0800C3
:105750000000000000000000000000000000E0F871
:10576000484444444C7870000000030F0C1810109B
:10577000100804000000000080C0602020E0C0008D
:1057800000040404FFFF04040404000000001010DF
:105790001F1F10101000000000000000000000009B
:1057A00000000000000070F88C04048CF874040CF5
:1057B000007076CF8D8D8D89C87870000020E0F064
:1057C00000000000000000000000FFFF08040404C7
:1057D000FCF8000000101F1F100000101F1F100019
:1057E00000000000006060000000000000000404F1
:1057F00004FCFC000000000000001010101F1F102F
:1058000010100000000000000000006060000000B8
:1058100000000000040404FCFC0000000000C0C004
:105820008080C07F3F0000000020E0F0000000000A
:10583000000000000000FFFF80C0F41C0404000012
:1058400000101F1F1100031F1C101000000020205B
:1058500020E0F000000000000000000000FFFF005A
:105860000000000000001010101F1F10101000009A
:1058700000000000000000000000000004FCFC0824
:1058800004FCFC0804FCFC00101F1F10001F1F106C
:10589000001F1F10000000000000000000000000BA
:1058A0000004FCFC08080404FCF8000000101F1FA2
:1058B000100000101F1F100000000000000000007A
:1058C0000000000000E0F0180C04040C18F0E000E8
:1058D00000030F0C101010100C0F0300000000004C
:1058E00000000000000000000004FCFC08040404A8
:1058F0000CF8F0000080FFFF889010101C0F0300D0
:1059000000000000000000000000000000E0F81CA3
:1059100004040408F8FC000000030F18101090881D
:10592000FFFF8000000000000000000000000000F9
:10593000040404FCFC100804040C0C001010101FDC
:105940001F10101000000000000000000000000008
:105950000000000000003078CCC48484840C1C005B
:1059600000001E1810101011190F06000000000092
:1059700000C000000000000000040404FFFF040455
:1059800004000000000000000F1F1010100C0000A9
:105990000000000000000000000000000004FCFE09
:1059A00000000004FCFE000000000F1F181010088B
:1059B0001F0F0800000000000000000000000000B1
:1059C00000040C3CFCC40000C43C0C0400000000BB
:1059D000010F1E0E0100000000000000000000008A
:1059E00000000000043CFCC400E47CFC84807C04D7
:1059F0000000071F070000071F070000000000004D
:105A000000000000000000000004041C7CE4C0341E
:105A10001C0404000010101C1601131F1C18100099
:105A200000000000000000000000000000040C3C2A
:105A3000FCC400C43C0404000000C080C1370E0157
:105A40000000000000000000000000000000000056
:105A500000001C0404C4F47C1C0400000000101CA2
:105A60001F17111010180E0000000000000000F8B1
:105A70000C04000000000000001028EF00000000EF
:105A8000000000000000003F604000000000000037
:105A90000000FF0000000000000000000000FF0008
:105AA00000000000000000000000FF0000000000F7
:105AB0000000040CF80000000000000000000000DE
:105AC000EF28100000000000000040603F000000D0
:105AD0000000000000180602020408102020300810
